:020000040800F2
:100000007004002001010008090100080B0100082C
:100010000D0100080F010008110100080000000098
:1000200000000000000000000000000013010008B4
:100030001501000800000000170100081901000860
:100040001B0100081B0100081B0100081B01000820
:100050001B0100081B0100081B0100081B01000810
:100060001B0100081B0100081B0100081B01000800
:100070001B0100081B0100081B0100081B010008F0
:100080001B0100081B0100081B0100081B010008E0
:100090001B0100081B0100081B0100081B010008D0
:1000A0001B0100081B0100081B0100081B010008C0
:1000B0001B0100081B0100081B0100081B010008B0
:1000C0001B0100081B0100081B0100081B010008A0
:1000D0001B010008210400081B0100081B01000887
:1000E0001B0100081B0100081B010008DFF80CD0F1
:1000F00000F040F80048004739090008700400206B
:100100000648804706480047FEE7FEE7FEE7FEE7B1
:10011000FEE7FEE7FEE7FEE7FEE7FEE7C1030008B5
:10012000ED000008D2B201E000F8012B491EFBD21D
:1001300070470022F6E710B513460A4604461946F2
:10014000FFF7F0FF204610BD30B50B4601460020FA
:100150002022012409E021FA02F59D4205D303FA89
:1001600002F5491B04FA02F52844151EA2F101020A
:10017000F1DC30BD064C074D06E0E06840F00103BD
:1001800094E8070098471034AC42F6D3FFF7B2FF6B
:100190000C0A00082C0A00083248806940F004006C
:1001A000304988610846806940F4805088612E4853
:1001B000006820F0C0002C4908600846006840F044
:1001C000300008600846006820F08040086008465B
:1001D000006840F0004008600846006840F0405069
:1001E00008600846006820F480000860084600683F
:1001F00040F4000008600846006840F440100860C1
:100200000846006840F0806008600846006820F0FA
:100210004070086014480C30006840F00200124939
:100220000C3108601148008840F400700F490880C4
:100230000846008840F4807008800846008820F056
:10024000380008800846008840F00800088008460A
:10025000008840F0040008800846008840F0400014
:100260000880704700100240000801400030014043
:1002700010B50548006820F00200034908600A2014
:1002800000F038FB10BD00000C08014010B5054817
:10029000006840F00200034908600A2000F02AFBD1
:1002A00010BD00000C0801400146002000BF094AB3
:1002B000128902F00202002AF9D0064A918100BF99
:1002C000044A128902F00102002AF9D0014A9289F7
:1002D000D0B270470030014010B500F001F810BDF9
:1002E0000CB50020019000903348006840F4803045
:1002F0003149086000BF3048006800F400300090C9
:100300000198401C0190009818B90198B0F5A06FB1
:10031000F1D12948006800F4003010B101200090AC
:1003200001E0002000900098012843D12348006894
:1003300040F01000214908600846006820F00300E2
:1003400008600846006840F0020008601A484068EB
:10035000194948600846406848600846406840F4CB
:10036000806048600846406820F47C104860084679
:10037000406840F4E81048600846006840F080702B
:10038000086000BF0C48006800F000700028F9D039
:100390000948406820F00300074948600846406863
:1003A00040F00200486000BF0348406800F00C00C5
:1003B0000828F9D10CBD00000010024000200240C6
:1003C00010B51348006840F0010011490860084664
:1003D0004068104908400E494860084600680E49C8
:1003E00008400B4908600846006820F48020086037
:1003F0000846406820F4FE0048604FF41F00886003
:10040000FFF76AFF4FF000600449086010BD00006C
:10041000001002400000FFF8FFFFF6FE08ED00E0CC
:100420000F48008800F0200058B10D48001D0088DA
:100430000C490D4A127888540B480078401C0A4930
:1004400008700748008800F0100038B104480088A0
:100450000348001D0088012004490870704700000F
:1004600000380140080000200000002001000020AA
:1004700010B53F48806940F480403D498861084696
:10048000806940F0040088613A48006840F08000CC
:10049000384908600846006820F0400008600846B7
:1004A000006840F0300008600846006840F4806052
:1004B00008600846006820F400600860084600688C
:1004C00020F44070086040F271202B490880081D1C
:1004D000008842F20C0108432749091D088008469C
:1004E000008820F4805008800846008820F480604E
:1004F0000880081D008820F44050091D0880081F4E
:10050000008840F01000091F08800846008840F06D
:100510002000088004200246184B19684FF6FF039C
:100520001940174B0B4343EA0221144B196000BFDB
:1005300025200121002808DA0A07140E0F4A0C3280
:1005400000F00F031B1FD45403E00A07130E0D4ADB
:10055000135400BF252000F01F02012191404209E1
:10056000920002F1E022C2F8001100BF10BD0000AD
:100570000010024004080140083801400CED00E082
:100580000000FA0500E400E000BF0549098801F019
:1005900080010029F9D00249091D08807047000038
:1005A0000038014070B505460E4600F09EF8FFF792
:1005B0005FFE2020FFF778FE280400EB0634C4F32A
:1005C0000740FFF771FEC4F30720FFF76DFEE0B2AE
:1005D000FFF76AFEFFF75AFE00F032F870BD10B563
:1005E000FFF7DAFD10BD2DE9F05F06460F46904695
:1005F0009946DDE90AABFFF73BFE0320FFF754FE07
:10060000300400EB073000EB082000EB0904C4F3D2
:100610000740FFF749FEC4F30720FFF745FEE0B2AD
:10062000FFF742FE002505E0FF20FFF73DFE0AF838
:1006300005006D1C5D45F7D3FFF728FEBDE8F09F70
:1006400010B5FFF715FE0520FFF72EFE00240AE087
:10065000601C84B24CF25030844204D107A000F0F8
:100660004DF8002406E0FF20FFF71EFE00F0010019
:100670000028EDD100BFFFF709FE10BD74696D655C
:10068000206F7574000000002DE9F05F06460F46EC
:1006900090469946DDE90AAB00F027F8FFF7E8FD40
:1006A0000220FFF701FE300400EB073000EB0820CA
:1006B00000EB0904C4F30740FFF7F6FDC4F307207D
:1006C000FFF7F2FDE0B2FFF7EFFD002505E01AF8B5
:1006D0000500FFF7E9FD681CC5B25D45F7DBFFF7D4
:1006E000D5FDFFF7ADFFBDE8F09F10B5FFF7C0FDEA
:1006F0000620FFF7D9FDFFF7C9FD10BD0FB4054B6C
:1007000010B503A9044A029800F018F810BC5DF86F
:1007100014FB0000270900080400002002E008C8BC
:10072000121F08C1002AFAD170477047002001E06B
:1007300001C1121F002AFBD1704700002DE9FF4FB5
:100740008BB09A460F460546002606E025280BD0BA
:1007500052460D9990476D1C761C28780028F5D1DB
:100760000FB03046BDE8F08F0024A046012260495A
:1007700000E0044315F8013F203B02FA03F0084271
:10078000F7D128782E2817D115F8010F44F004046A
:100790002A280ED06FF02F022878A0F13001092905
:1007A0000AD808EB880102EB410100EB01086D1C3F
:1007B000F2E757F8048B6D1C287869283ED006DCD8
:1007C0000028CDD063280BD0642804D136E07328EC
:1007D00010D075284BD052460D999047761C85E075
:1007E00017F8040B8DF8000000208DF80100E94691
:1007F000012003E057F8049B4FF0FF3061074FF0F2
:10080000000401D40AE0641C44450DDA8442FADB9A
:1008100019F804100029F6D106E0641C8442FCDBC0
:1008200019F804100029F8D1264404E019F8010B46
:1008300052460D999047641EF8D257E001CF4FF011
:100840000A0B002802DA40422D2102E0210504D5DE
:100850002B218DF82410012103E0E10705D0202190
:10086000F7E70DF1200908910CE00021F9E701CF2D
:100870004FF00A0BF9E75946FFF766FC01F1300229
:1008800009F8012D0028F6D1ADEB090000F1200B8D
:10089000600701D44FF00108D84502DDA8EB0B003A
:1008A00000E000208046002406E009A85246005DD2
:1008B0000D999047641C761C08988442F5DB04E08F
:1008C000302052460D999047761CB8F10001A8F1EE
:1008D0000108F5DC05E019F8010B52460D99904727
:1008E000761CBBF10001ABF1010BF4DC6D1C34E7AD
:1008F0000928010000EBC001C9004FF0E02251615E
:100900000521116100BF4FF0E021096901F4803138
:100910000029F8D04FF0E021096921F001014FF0E2
:10092000E0221161704700B502460B46D0B2FFF7D6
:100930002BFE104600BD00009CB0602104A8FFF70C
:10094000F8FB1D4800680390FFF749FEFFF790FD94
:100950009DF80C1019A0FFF7D1FE19A0FFF7CEFEED
:1009600000210846FFF71EFE18A0FFF7C7FE0C2067
:100970001AA100231A46CDE9001019461846FFF7C0
:1009800083FE1AA0FFF7BAFE0C2003A900231A4623
:10099000CDE9001019461846FFF725FE16A0FFF70F
:1009A000ADFE9DF80C1005A0FFF7A8FE03A915A049
:1009B000FFF7A4FE00BFFEE7080A000825640A004E
:1009C000696E6974206F7665720A000065726173E2
:1009D0006572206F7665720A0000000068656C6CB5
:1009E0006F2063776F726C64000000007772697427
:1009F00065206F7665720A007265616479207265A0
:100A000061640A0025730A00010000002C0A000836
:100A100000000020080000001C070008340A00083D
:100A200008000020680400002C07000800000000F7
:040A300000000000C2
:0400000508000101ED
:00000001FF
