:020000040800F2
:100000001007002001010008090100080B01000889
:100010000D0100080F010008110100080000000098
:1000200000000000000000000000000013010008B4
:100030001501000800000000170100081901000860
:100040001B0100081B0100081B0100081B01000820
:100050001B0100081B0100081B0100081B01000810
:100060001B0100081B0100081B0100081B01000800
:100070001B0100081B0100081B0100081B010008F0
:100080001B0100081B0100081B0100081B010008E0
:100090001B0100081B0100081B0100081B010008D0
:1000A0001B0100081B0100081B0100081B010008C0
:1000B0001B0100081B0100081B0100081B010008B0
:1000C0001B0100081B0100081B0100081B010008A0
:1000D0001B010008F50300081B0100081B010008B4
:1000E0001B0100081B0100081B010008DFF80CD0F1
:1000F00000F02AF8004800477D080008100700209B
:100100000648804706480047FEE7FEE7FEE7FEE7B1
:10011000FEE7FEE7FEE7FEE7FEE7FEE795030008E1
:10012000ED000008D2B201E000F8012B491EFBD21D
:1001300070470022F6E710B513460A4604461946F2
:10014000FFF7F0FF204610BD064C074D06E0E068C3
:1001500040F0010394E8070098471034AC42F6D30E
:10016000FFF7C8FFC4090008E409000832488069A5
:1001700040F00400304988610846806940F48050AE
:1001800088612E48006820F0C0002C4908600846AD
:10019000006840F0300008600846006820F08040A9
:1001A00008600846006840F00040086008460068A3
:1001B00040F0405008600846006820F48000086065
:1001C0000846006840F4000008600846006840F4F3
:1001D000401008600846006840F0806008600846EB
:1001E000006820F04070086014480C30006840F04F
:1001F000020012490C3108601148008840F4007078
:100200000F4908800846008840F48070088008463E
:10021000008820F0380008800846008840F0080078
:1002200008800846008840F00400088008460088DE
:1002300040F0400008807047001002400008014074
:100240000030014010B50548006820F00200034965
:1002500008600A2000F0B0FA10BD00000C08014050
:1002600010B50548006840F00200034908600A2004
:1002700000F0A2FA10BD00000C0801400146002069
:1002800000BF094A128902F00202002AF9D0064A88
:10029000918100BF044A128902F00102002AF9D0BC
:1002A000014A9289D0B270470030014010B500F089
:1002B00001F810BD0CB50020019000903348006893
:1002C00040F480303149086000BF3048006800F4D5
:1002D000003000900198401C0190009818B90198D6
:1002E000B0F5A06FF1D12948006800F4003010B1DA
:1002F0000120009001E0002000900098012843D1E7
:100300002348006840F01000214908600846006852
:1003100020F0030008600846006840F00200086012
:100320001A484068194948600846406848600846CD
:10033000406840F4806048600846406820F47C10C3
:1003400048600846406840F4E81048600846006885
:1003500040F08070086000BF0C48006800F000703A
:100360000028F9D00948406820F003000749486098
:100370000846406840F00200486000BF03484068FB
:1003800000F00C000828F9D10CBD0000001002405C
:100390000020024010B51348006840F001001149E8
:1003A000086008464068104908400E494860084601
:1003B00000680E4908400B4908600846006820F4B0
:1003C000802008600846406820F4FE0048604FF432
:1003D0001F008860FFF76AFF4FF000600449086063
:1003E00010BD0000001002400000FFF8FFFFF6FE05
:1003F00008ED00E010B50F48008800F0200050B173
:100400000D480088401C0C4908800A49091D0988CC
:10041000C8B200F0F3F90748008800F0100038B1C6
:10042000044800880348001D008801200349087023
:1004300010BD0000003801400A0000200800002024
:1004400010B53F48806940F480403D4988610846C6
:10045000806940F0040088613A48006840F08000FC
:10046000384908600846006820F0400008600846E7
:10047000006840F0300008600846006840F4806082
:1004800008600846006820F40060086008460068BC
:1004900020F44070086040F271202B490880081D4C
:1004A000008842F20C0108432749091D08800846CC
:1004B000008820F4805008800846008820F480607E
:1004C0000880081D008820F44050091D0880081F7E
:1004D000008840F01000091F08800846008840F09E
:1004E0002000088004200246184B19684FF6FF03CD
:1004F0001940174B0B4343EA0221144B196000BF0C
:1005000025200121002808DA0A07140E0F4A0C32B0
:1005100000F00F031B1FD45403E00A07130E0D4A0B
:10052000135400BF252000F01F0201219140420911
:10053000920002F1E022C2F8001100BF10BD0000DD
:100540000010024004080140083801400CED00E0B2
:100550000000FA0500E400E000BF0549098801F049
:1005600080010029F9D00249091D08807047000068
:100570000038014070B505460E4600F08AF8FFF7D6
:1005800061FE2020FFF77AFE280400EB0634C4F356
:100590000740FFF773FEC4F30720FFF76FFEE0B2DA
:1005A000FFF76CFEFFF75CFE00F032F870BD10B58F
:1005B000FFF7DCFD10BD2DE9F05F06460F469046C3
:1005C0009946DDE90AABFFF73DFE0320FFF756FE33
:1005D000300400EB073000EB082000EB0904C4F303
:1005E0000740FFF74BFEC4F30720FFF747FEE0B2DA
:1005F000FFF744FE002505E0FF20FFF73FFE0AF865
:1006000005006D1C5D45F7D3FFF72AFEBDE8F09F9E
:1006100010B5FFF717FE0520FFF730FE002407E0B6
:10062000601C84B24CF25030844201D1002406E0B8
:10063000FF20FFF723FE00F001000028F0D100BFEB
:10064000FFF70EFE10BD2DE9F04104460E46174699
:1006500000F01FF8FFF7F6FD0220FFF70FFEC4F3CE
:100660000740FFF70BFEC4F30720FFF707FEE0B2D9
:10067000FFF704FE002504E0705DFFF7FFFD681C36
:1006800085B2BD42F8DBFFF7EBFDFFF7C1FFBDE828
:10069000F08110B5FFF7D6FD0620FFF7EFFDFFF75D
:1006A000DFFD10BD0FB4054B10B503A9044A029835
:1006B00000F017F810BC5DF814FB0000EB07000811
:1006C0000C00002002E008C8121F08C1002AFAD15D
:1006D00070477047002001E001C1121F002AFBD1C2
:1006E00070472DE9F84F99469246884605460027FF
:1006F00006E025280AD051464A4690476D1C7F1CCB
:1007000028780028F5D13846BDE8F88F002315F881
:10071000011F18462E2915D115F8011F04232A2977
:100720000DD06FF02F022978A1F13004092C09D8DF
:1007300000EB800002EB400008446D1CF3E758F822
:10074000040B6D1C2A78002ADDD0632A07D0732A97
:100750000FD0104651464A4690477F1C2AE018F8B1
:10076000042B8DF8002000218DF801106E46012128
:1007700003E058F8046B4FF0FF315A074FF00004C4
:1007800001D409E0641C84420BDA8C42FADB325D4E
:10079000002AF7D105E0641C8C42FCDB305D0028A8
:1007A000F9D1274404E016F8010B51464A46904718
:1007B000641EF8D26D1CA3E700EBC001C9004FF026
:1007C000E02251610521116100BF4FF0E02109696C
:1007D00001F480310029F8D04FF0E021096921F0BF
:1007E00001014FF0E0221161704700B502460B464F
:1007F000D0B2FFF7B1FE104600BD000010B50446B0
:1008000012490988481CC11700EBD1514912A0EBCD
:1008100041210F4A1180104600880E4909888842FC
:100820000FD00D4809490988445408490988481CD3
:10083000C11700EBD1514912A0EB4121034A1180AD
:1008400002E006A0FFF72EFF10BD0000020000200E
:100850000600002004000020100100206E6F206EB2
:100860006577206379636C652073706163652074BC
:100870006F2077726974650A00000000C4B000241C
:10088000FFF795FEFFF7DCFD56E04FF4827103A8F9
:10089000FFF74FFC00210846FFF76CFE25E02749D3
:1008A000274A1288881800F06BF8012804D12448E0
:1008B0000088401C2249088021480088B0F5807FCC
:1008C00013D14FF480721D492046FFF7BCFE002073
:1008D0001B49088004F58074B4F5800F02D119A07B
:1008E000FFF7E0FE1BA0FFF7DDFE1E4800780028A2
:1008F000D5D01348008828B1114802880F492046F6
:10090000FFF7A1FE4FF4807003A900231A46CDE93A
:10091000001019461846FFF74EFE03A912A0FFF774
:10092000C1FE00200F490870134908801349088050
:1009300003490880002400BFA7E700001000002042
:10094000000000206E6F20666C6173682073706118
:1009500063650A007772697465206F6E6520706147
:1009600067650A0008000020636865636B5F627555
:10097000666665723D2573000400002002000020B9
:1009800001460D4800880D4A1288904211D00C484B
:100990000A4A1288805C0870084A1288501CC217E4
:1009A00000EBD2525212A0EB4222044B1A800120DB
:1009B00070474FF0FF30FBE70200002004000020EA
:1009C00010010020E40900080000002010000000D1
:1009D000C4060008F4090008100000200007000009
:1009E000D406000800000000000000000000000025
:0409F0000000000003
:0400000508000101ED
:00000001FF
